:400000000010002011000000290700002907000008B500F0A9FBC04638B51B4C23688022D20213432360182000F0FEFC2268174B13402360164A174B1A601122164B1A606C
:400040001F32164B1A60203A154B1A601032154B1A6080231B06144A136000252560134A1360134A134B1A60134B144A1360144A13600920134900F0BBFC092000F0ACFCD3
:40008000114B1D6038BDC04600010B40FFFFFBFF0600008004010B40080202400C020240200202402402024008010B400000024001000080400002401000008080000240FF
:4000C00004000240390C00000C020B4010B572B6002410E0294863001A195200821891881B195B001A5AC31858880004104300F083FB0134E4B2012CECD999231B04204A8A
:400100001360EE2109021F4A116099211E4A11601E4A13601E4A13601E4A13601E4A13601E4B1978022002220A431A701C4C22783C218A4328390A432270197816220A43C0
:400140001A702023174A13601749184A1160184A1360184A184B1A603622184B1A60D8221201174B1A60174B18603122164B1A60164B1860FFF750FF10BDC046B01B0000B5
:40018000000001400C0001401000014000500F4010500F4020500F4030500F4000700F4001700F4000000440B61DDB000800044018000440B66DDB000801044008020440D2
:4001C0000803044000040440080404401804044010B5064C2378002B07D1054B002B02D0044800E000BF0123237010BD5001002000000000901B000008B5084B002B03D01D
:400200000748084900E000BF07480368002B00D108BD064B002BFBD09847F9E700000000901B000054010020C80000200000000038B5144A1368591C1160134A944663446C
:40024000124A93421AD80F4B1B79632B16D800F03BFF0C4C257900F04DFF8300181840000C2100F0C7FF6D00094BE852002000F039FF00F05DFF237901332371012000F0BB
:400280008BFD38BD6C01002018FCFFFFE6030000AC010020F0B5071C0026002212E0BC5D08230BE0151C65405208E80703D5742040424240D2B26408013BDBB2002BF1D106
:4002C0000136F6B28E42EAD3101CF0BD08B5002803D1081C00F096FA58E0012803D1081C00F09CFA52E0022803D1081C00F0A2FA4CE0032803D1081C00F088FD46E0042887
:4003000003D1081C00F08EFD40E0052803D1081C00F094FD3AE0062803D1081C00F09AFD34E0072803D1081C00F0A0FD2EE0082803D1081C00F0A6FD28E0092803D1081CFB
:4003400000F0ACFD22E00A2803D1081C00F0B2FD1CE00B2803D1081C00F0B8FD16E00C2803D1081C00F0BEFD10E00D2803D1081C00F0C4FD0AE00E2803D1081C00F0CAFDE3
:4003800004E00F2802D1081C00F0D0FD08BDC04608B5084A53790849C8540133DBB253713F2B05D9054800F00BFB3F22014B5A7108BDC0466C010020B4020020941B0000F6
:4003C000002304E00021064AD1540133DBB23F2BF8D9044B00225A7101329A717047C046B40200206C01002010B500F0D3FAC4B2A02C08D1104BDB79A02B0FD1201CFFF7A1
:40040000C7FF01230BE00C4BDB79A02B01D1FFF7D7FF201CFFF7BCFF002300E00023002B02D1054BDC7102E00022034BDA71034B1A68034B1A6010BD6C010020CC0F074074
:40044000C00F0740C0000818C0B27047F0B5474680B4011C031C093B1B2B24D927E08B421ED18846264B5F5C002516E04346083B5B19234AD65C00240BE0802323413342F2
:4004800005D0281C211CFFF7DDFF1E4B1F540134E4B2072CF1D90135EDB2072DE6D92CE00933DBB200E00923242BD8D925E0252823D1134B1B5CFF2B1FD11148FFF7EAFE5B
:4004C00000F0F6F90022104B1A70002410E00D4B1A5D0E4B1A5501220D4B1A55A20000210C4BD150201C0131FFF7F0FE0134E4B23F2CECD90122044B1A7004BC9046F0BDBA
:40050000B402002074020020CC00002038030020F402002078030020002304E00021034AD1540133DBB23F2BF8D970477402002008B5002808D1084B1B5C084A1372012BE9
:4005400008D1FFF7E9FF05E0044B1B7A012B01D1FFF77CFF08BDC046B40200206C01002008B5084B1B5C002B03D10122054B1A5402E00022034B1A54024B195CFFF7A6FEDB
:4005800008BDC046F402002038B5002410E00025094B1D550122094B1A55A200084BD550201C0121FFF792FE064B1D550134E4B23F2CECD938BDC04638030020F402002060
:4005C000780300207402002030B583B062B64B4800F00EFC4A4800F0DBFCFFF7D5FF494B0B2018700F2159700C229A701524DC7017251D715C7106349C71DA71187259726F
:40060000023199720231D972033919735A73023A9A730F32DA7300F0AFFB00F02BF900F0D9FC00F0B5FD384B1B78012B46D1374B1B68374A934206D9364A1360002000F0E7
:4006400051FD00F075FD002412E02E4B1B5D002B0CD02E4A1068A2002F4D5259824205D2D318A1004B51201CFFF77AFF0134E4B23F2CEAD9254B1A68254B9A421ED9234BF9
:400680005B7A632B12D800F01FFD204C657A00F031FD8300181840000C2100F0ABFD6D001E4BE852637A0133637207E0642B05D100F00AFD154A537A01335372134B9B79F0
:4006C000002B03D0114B00229A729A710F4A5379013B907A8342A6DBFFF72AFF0B4CA37A0F4AD25C01A80F4900F04AFE01A800F0DFFCA37A0133A37295E7C04631020000D4
:40070000E903000038030020CC0000206C0100208813000078040020780300207C040020B4020020A81B000008B500F0F5FD03680C2B00D1FEE7FEE708B5031C084A10686C
:40074000C318084A9A1A802A02DC054A136005E000F0E2FD0C2303600120404208BDC046D00000204805002070B50F4E0F4D13E029686B68AC68002202E001C901C304322C
:40078000A242FAD1E868002202E0002102C304328242FAD11035013E002EE9D100F0C2FDFFF712FFFEE7C04601000000481C000008B500230AE0032B03D89A000A495058B1
:4007C00000E00A4899000A4A885001332F2BF2D9FFF77CFC0022074B1A608022D205116801230B43136008BD000000002907000000000020C000002008B50A1C002100F08D
:40080000B7FD08BD04490A68BF231A4080017F3B18401043086070470001044004490A68FB231A408000F73B18401043086070470000044004490A68F7231A40C000EF3BE6
:4008400018401043086070470000044008B500F08BF808BD08B500F039F808BD08B5044A1368802109060B431360FFF7EFFF08BD0000074008B5064B1B78002B04D1FFF754
:40088000E9FF0122024B1A70FFF7E8FF08BDC04678010020014B18687047C04640030740024B1B680F2018407047C04608030740044B1B680F221340082BF9D0024B186085
:4008C0007047C046080207404002074010B5144A144B1A600023144A13600121134A1160134A14480260072413480460134803601348016013490A60134A1360134A13609C
:40090000134A1360134A1360134A13600421134A1160134A13601268124B1A8010BDC0460B000002000007404000074048000740070000800003074004030740100307405D
:40094000440007400002074004020740880E0740C80E0740480F0740080F0740C80F0740880F07407A010020064A1168064B0B40902109040B431360044B1A88044B1A602B
:400980007047C04600000140FFFF0FFF7A010020880F074008B5FFF783FF002802D0FFF779FF00E00020054B1A68D8239B001A4203D01A1C014B1A60002008BDC00F074089
:4009C00038B5051C002402E0FFF772FF0134285D0028F9D138BDC0461F2318401E3B8340181C014B1860704700E100E001BE704738B5041C0D1C1F2802D90020FFF7F6FFD6
:400A0000A400034B9C4664442068256038BDC0464000002008B5034B1B7B584300F0C8FB08BDC046D4000020F0B557464E46C0B483B0041C00F0C6FB0190E71E2D2F74D898
:400A40003F4B1B78DBB2A34208D33E4B1B78DBB29A463D4B1B78DBB2994631E03B4B1B78DBB2A34208D33A4B1B78DBB29A46394B1B78DBB2994623E0374B1B78DBB2A342F3
:400A800008D3364B1B78DBB29A46354B1B78DBB2994615E0334B1B78DBB2A34208D3324B1B78DBB29A46314B1B78DBB2994607E02F4B1B78DBB29A462E4B1B78DBB2994637
:400AC0002D4BDE5D2F2E09D92A2C07D919222B4B1A60052000F06CFB192503E0274B1D683F231D40AE4206D2234BDA5D234B1A60052000F05DFB1F4B9C4664442378DBB272
:400B00001F4A13601F4B52461A601F4B4A461A600520FFF77FFFAE420AD9174BDA5D174B1A60052000F044FB02E00020FFF75EFF019800F04BFB03B00CBC91469A46F0BDB1
:400B4000C0F1FF0FC1F1FF0FC2F1FF0FC3F1FF0FC4F1FF0FC5F1FF0FC6F1FF0FC7F1FF0FC8F1FF0FC9F1FF0FCAF1FF0FCBF1FF0FCCF1FF0FCDF1FF0FBC1B00002CFF0B405B
:400B800028FF0B401CFF0B4020FF0B40034B1868C0231B02184000D00120704700010B4008B500F00FFB044A1368C02109020B43136000F00BFB08BD00010B4010B500F0F0
:400BC00001FB08490A68084B1A408024E40122430A600A6813408022120213430B6000F0F5FA10BD00010B40FF3FFFFF70B5061C00F0E8FA041CFFF7C9FF002803D0FFF7D9
:400C0000DDFF012500E000250848331C0340084A106808490840184310601368012D01D1FFF7BEFF201C00F0D1FA70BD0404040010020B40FBFBFBFF10B5244B1B685B07D9
:400C400015D5234B1B685B070ED5224BD969042001401F4C22688A432260DA698243DA611B69002B00D098470420FFF7BFFF174B1B685B0518D5164B1B685B0510D5154BC8
:400C8000D9698022D2001140114802688A430260D969114A0A40DA615B69002B00D098478020C000FFF7A2FF084B1B685B030CD5074B1B685B0304D5064B9B69002B00D013
:400CC00098478020C002FFF791FF10BD10020B40E80000207C010020FFFBFFFF0004000C014B18607047C046080105400004000C014B18607047C0461401054038B5041C8F
:400D00000D1C00F05FFAAC40024B1C6000F05EFA38BDC0460800054008B500F053FA064A116801230B43136000F050FA01201821FFF7E4FF08BDC04600000540014B186013
:400D40007047C0463801054008B580229204074B1A600C22064B1A600120FFF7EFFF0548FFF7C4FF0020FFF7B9FF08BD0001054024010540C05D000008B5064B1B78002B47
:400D800004D1FFF7E1FF0122024B1A70FFF7C4FF08BDC0469C010020014B18607047C046300105408023014AD05070470000002010B5041C00F006FA044A1368C0218B4324
:400DC000A4011C43146000F001FA10BD10E400E080225202014B1A607047C04600E100E080225202014B1A607047C04680E100E010B5041CFFF7F4FF201CFFF7D3FF032006
:400E0000FFF7D6FFFFF7E4FF10BDC046031C04490868FE220240012018401043086070470000044004490A68FD231A404000FB3B18401043086070470000044004490A6852
:400E4000BF231A4080017F3B184010430860704700000440044A11687F230B40C001C0B2184310607047C04600000440031C04490868FE2202400120184010430860704711
:400E80000001044004490A68FD231A404000FB3B18401043086070470001044004490A68FB231A408000F73B18401043086070470001044004490A68F7231A40C000EF3B1A
:400EC00018401043086070470001044004490A68EF231A400001DF3B18401043086070470001044004490A68DF231A404001BF3B184010430860704700010440044A116862
:400F00007F230B40C001C0B2184310607047C04600010440031C04490868FE220240012018401043086070470002044004490A68FD231A404000FB3B1840104308607047DC
:400F400000020440014BD8667047C0460000002010B5041C00F036F9044A13689B009B08A4071C43146000F031F910BD08E400E080221201014B1A607047C04600E100E08F
:400F800080221201014B1A607047C04680E100E010B5041CFFF7F4FF201CFFF7D3FF0320FFF7D6FFFFF7E4FF10BDC04608B500F06DF808BD08B500F01DF808BD08B5044AE3
:400FC0001368802109060B431360FFF7EFFF08BD0000064008B5064B1B78002B04D1FFF7E9FF0122024B1A70FFF7E8FF08BDC0469E01002010B5134A134B1A600023134ABC
:4010000013600121124A1160124A13480260072412480460124803601248016012490A60124A1360124A1360124A1360124A1360124A1360124A1360124A13601268124B8F
:401040001A8010BD0B00000200000640400006404800064007000080000306400403064010030640440006400002064004020640880E0640C80E0640480F0640080F06401C
:40108000C80F0640880F0640A001002005490B68F0229343603A13430B60034B1A88034B1A60704710000140A0010020880F064038B5051C002402E000F08EF80134285DCF
:4010C0000028F9D138BDC04608B500F07BF8044A136802218B43136000F078F808BDC046000005400004000C014B18607047C04648010540024B18680004000C7047C0468D
:40110000480105400004000C014B18607047C0465401054038B5041C0D1C00F053F8AC40024B1C6000F052F838BDC0460800054008B500F047F8064A116802230B431360B3
:4011400000F044F802201821FFF7E4FF08BDC04600000540014B18607047C0467801054008B580229204074B1A600C22064B1A600020FFF7EFFF0548FFF7C4FF0020FFF7E6
:40118000B1FF08BD4001054064010540FFFF000008B5064B1B78002B04D1FFF7E1FF0122024B1A70FFF7C4FF08BDC046A20100200230800804D0C0460138FDD1C046C0462D
:4011C000C0467047EFF3108072B6704780F310887047C046C046C046044B1B680F221340082BF9D0024B18607047C0460802064040020640002243088B4274D303098B4207
:401200005FD3030A8B4244D3030B8B4228D3030C8B420DD3FF22090212BA030C8B4202D31212090265D0030B8B4219D300E0090AC30B8B4201D3CB03C01A5241830B8B422D
:4012400001D38B03C01A5241430B8B4201D34B03C01A5241030B8B4201D30B03C01A5241C30A8B4201D3CB02C01A5241830A8B4201D38B02C01A5241430A8B4201D34B02C0
:40128000C01A5241030A8B4201D30B02C01A5241CDD2C3098B4201D3CB01C01A524183098B4201D38B01C01A524143098B4201D34B01C01A524103098B4201D30B01C01AF5
:4012C0005241C3088B4201D3CB00C01A524183088B4201D38B00C01A524143088B4201D34B00C01A5241411A00D20146524110467047FFE701B5002000F00CF802BDC04666
:401300000029F7D003B5FFF775FF0EBC4243891A1847C0467047C046014B18687047C0464C0100200E4B70B500251E1C0D4CE41AA410A54204D0AB00F35898470135F8E704
:4013400000F070FC084B00251E1C084CE41AA410A54204D0AB00F35898470135F8E770BD301C0000301C0000301C0000381C0000031C8218934202D019700133FAE770479A
:401380000EB410B59DB002A9029008610B48822488604861012040421FABC881084804CBA400006801938C8100F06CF80023029A13701DB010BC08BC03B01847FFFFFF7F26
:4013C0004C010020F0B58E6885B0071C0C1C03920193B34245D390238A89DB001A423DD003250969236801985B1A029363695D43EB0F5D19029B6D1001331B189D4200D24F
:401400001D1C381C53050FD5291C00F025FB061E13D0029A216900F0BCFAA289184B134080221343A38111E02A1C00F06DFB061E0CD1381C216900F0C9FA0C2340220120EB
:401440003B60A38940421343A38117E0029B2661F61826606561019EED1AA560019BB34200D2019E321C2068039900F09BFA0020A3689B1BA36023689E19266005B0F0BD82
:401480007FFBFFFFF0B59FB0029005938B890E1C171C1B0610D50B69002B0DD1402100F0DBFA30603061002804D10C23029A01381360D0E040237361002306AD6B6120330B
:4014C0006B761033AB763C1C2378002B03D1E31B049312D003E0252BF9D00134F4E7049B0298311C3A1CFFF76DFF431C00D1ACE06A69049B944663446B612378002B00D1E2
:40150000A3E00122002352426A6002A95432521801342B60EB60AB601370AB654F4F2178381C052200F02AFA002808D0C01B01278740381C2B68013418432860EEE72B6849
:40154000DA0604D55322202102A8121811701A0704D553222B2102A81218117022782A2A01D0099B0EE0059A111D12680591002A01DB099204E05242EA60022213432B6001
:40158000013409E02278303A092A04D80A214B4301349B18F6E7099323782E2B18D163782A2B09D1059B02341A1D1B680592002B0DDA01235B420AE0002301342278303AB9
:4015C000092A04D80A214B4301349B18F6E70793234F2178381C032200F0D0F9002807D0C01B40278740381C2B6801341843286021781C480622671C297600F0BFF9002869
:4016000012D0194B002B06D10722059B073393430833059314E005AB00930298291C321C124B00E000BF07E005AB00930298291C321C0E4B00F08AF80390039B013304D0FB
:401640006B69039A9B186B613DE7B3890B985B0601D5012040421FB0F0BDC046EE1B0000F41B0000F81B000000000000C5130000F7B5171C01930A698B6800900C1C9342B2
:4016800000DA131C221C3B6043321278002A01D001333B6023689B0602D53B6802333B60062523681D401ED0231C43331B785A1E9341226892061CD53020E1184031C8706F
:4016C000211C5A1C45310978A21840320233D1700FE0221C0123009801991932089EB047431C0ED00135E3683A689B1A9D42F0DBDAE7221C009801994332089DA847431CDB
:4017000002D10120404220E006232068E1683A6803400025042B03D18D1AEB43DB171D40A3682269934201DD9B1AED180027AF420ADA221C0123009801991A32089EB0478C
:40174000431CDED00137F2E70020FEBDF0B58BB006920A1C43320793059004920A7E0C1C109B6E2A00D1A8E011D8632A22D009D8002A00D1B2E0582A00D0C2E045310A7092
:401780007C4A4FE0642A1DD0692A1BD0B9E0732A00D1A7E009D86F2A29D0702A00D0B0E0202209680A43226037E0752A1FD0782A33D0A6E00E1C1A684236111D19601368A8
:4017C0003370A1E021681A68080606D4490604D5111D19600023D55E02E0111D19601568002D3BDA2D23049A6D42137036E021681A68080606D4490604D51568111D1960F0
:40180000ADB202E0111D196015685A4B227E03930A276F2A1DD108271BE0221C782145321170554A19680392081D226818600D68100602D4500600D5ADB2D30702D52023FC
:401840001A4322601027002D03D1202322689A432260231C002243331A7002E00A27454B03936368A360002B03DB0422216891432160002D02D1049E002B0ED0049E281C1F
:40188000391CFFF73DFD039B013E5B5C281C3370391CFFF7AFFC051EF1D1082F09D12368DB0706D563682269934202DC3023013E3370049B9B1B23612BE009681A680806D1
:4018C00007D4490605D5111D19601368A28A1A8004E0111D1960136862691A600023049E236116E01A68111D196016680021301C626800F043F8002801D0801B606063684A
:4019000003E0261C42363270012323610023049A1370079B05980093211C069B09AAFFF7A7FE431C02D10120404221E0236905980699321C079DA847431CF4D023689B07AF
:4019400005D4099BE068984212DA181C10E00025E368099A9B1A9D42F3DA221C0123059806991932079EB047431CDCD00135EFE70BB0F0BDFF1B0000101C0000C9B28218E5
:40198000904204D003788B4202D00130F8E700207047002310B5934203D0CC5CC4540133F9E710BD10B5814208D28B18984205D29B1A013A09D3995C8154FAE700239342AA
:4019C00003D0CC5CC4540133F9E710BD30B500293ED004390B68002B00DAC9181D4A1368141C002B02D14B60116031E099420DD208680A189A4203D11368C3180B6053688C
:401A00004B60216024E08A4203D8131C5A68002AF9D11D685C198C420BD10968691858181960904214D110685268091819605A600EE08C4202D90C23036009E008680C1888
:401A4000944203D114685268001908604A60596030BDC046A8010020032370B5CC1C9C430834051C0C2C01D20C2405E0002C03DA0C2300202B6042E08C42F9D3204A1368D3
:401A8000101C191C002913D00A68121B0DD40B2A02D90A608B181FE08B4202D15A6802601BE04A685A600B1C17E00B1C4968E9E7144E3368002B03D1281C00F04BF8306029
:401AC000281C211C00F046F8031C421CD0D00322C61C964386420AD11C60181C07210B301A1D8843821A0AD05142995007E0311A281C00F02FF8431CBAD0331CECE770BDCB
:401B0000A8010020A4010020F8B5061C0C1C151C002904D1111CFFF79FFF041C18E0002A03D1FFF753FF2C1C12E000F025F8A8420ED2301C291CFFF78FFF071E07D0211C73
:401B40002A1CFFF726FF301C211CFFF73FFF3C1C201CF8BD38B50023064C051C081C2360FEF7EAFD431C03D12368002B00D02B6038BDC046440500200B1F1A68101F002A4B
:401B800004DA891804390B68D018043870470000000000007278206275666665722066756C6C0A0D00000000253032580000000000300F40000400400F40000403040506A6
:401BC0000708090A0B0C0E0F101112131415161718191B1C1D1E1F2021222325262728292A2B2E2F30313233343500004300232D302B2000686C4C006566674546470030A5
:401C0000313233343536373839414243444546003031323334353637383961626364656600000000F8B5C046F8BC08BC9E467047F9010000B1070000F8B5C046F8BC08BC2D
:401C40009E467047D1010000581C0000C800002088000000F8030000000000000100000048050020010000000000E02EC05D00001800000000366E010404040000000000B5
:401C800000000000000000000000000000000000000000000000000000000000EC1B000000000000000000000000000000000000000000000000000000000000000000001D
:401CC00000000000000000000000000000000000000000000000000000000000EC0000200000000000000000000000000000000000000000000000000000000000000000D8
:401D000000000000000000000000000000000000000000000000000000000000000000000000000000000000000000000000000000000000000000000000000000000000A3
:401D40000000000000000000000000000000000000000000000000000000000000000000000000000000000000000000000000000000000000000000000000000000000063
:401D80000000000000000000000000000000000000000000000000000000000000000000000000000000000000000000000000000000000000000000000000000000000023
:401DC00000000000000000000000000000000000000000000000000000000000000000000000000000000000000000000000000000000000000000000000000000000000E3
:0200000490303A
:02000000337F4C
:0200000490402A
:200000000000000000000000000000000000000000000000000000000000000000000000E0
:0200000490501A
:0C000000000204C81193110104D1451244
:0200000490600A
:0100000001FE
:00000001FF