:400000000010002011000000990200009902000008B500F061F9C04638B5164C23688022D20213432360182000F046FA2268124B13402360114A124B1A602022114B1A60A4
:40004000103A114B1A6080221206104B1A60002525600F4A0F4B1A600F4A104B1A6009200F4900F0F5F9092000F0E6F90D4B1D6038BDC04600010B40FFFFFBFF06000080DB
:4000800004010B400C0202403002024008010B400C000080000002401000008040000240C90600000C020B4010B572B601222C4B1A70002410E02B4863001A1952008218B6
:4000C00091881B195B001A5AC31858880004104300F064F90134E4B2012CECD92149081C0C302C3100F040F9802252001E4B1A8001231E4A1370902109041D4A11601D4976
:400100001D4A11601D491E4A1160802189041D4A1160992109041C4A11601C4A136002221B4B1A601B4B19780A431A701A4802783C218A4328390A430270197816220A431D
:400140001A702023154A1360C4218902144A1160144A1360144A154B1A60FFF75DFF10BD1C700F409813000000600F4002600F400000014009EE00000C0001400400990071
:4001800000500F4004500F4030500F402000004000800F4000700F4001700F40000004400800044018000440810D00000803044010B5064C2378002B07D1054B002B02D0B5
:4001C000044800E000BF0123237010BD50010020000000008813000008B5084B002B03D00748084900E000BF07480368002B00D108BD064B002BFBD09847F9E700000000B6
:400200008813000054010020C80000200000000000B583B000F0FCF81B2802D1002000F069FB012000F026F900F05EFB021C01A8054900F0A1FC01A800F01EFB034800F068
:400240001BFB03B000BDC0468C1300009413000010B582B00D4800F099FB62B600F0C8F800F098FA00F060FB094C201C00F004FB00F03AFB021C01A8064900F07DFC01A87A
:4002800000F0FAFA201C00F0F7FAFEE711020000941300008C13000008B500F039FC03680C2B00D1FEE7FEE708B5031C084A1068C318084A9A1A802A02DC054A136005E02A
:4002C00000F026FC0C2303600120404208BDC046CC000020A801002070B50F4E0F4D13E029686B68AC68002202E001C901C30432A242FAD1E868002202E0002102C3043207
:400300008242FAD11035013E002EE9D100F006FCFFF79EFFFEE7C04601000000EC16000008B500230AE0032B03D89A000A49505800E00A4899000A4A885001332F2BF2D997
:40034000FFF7B2FE0022074B1A608022D205116801230B43136008BD000000009902000000000020C0000020F0B50025002711E0BB00C658F3B2FF22964308E06A008A1864
:400380001478A419527822700135013BDBB2002BF4D10137072FEBD9F0BDC04608B50A1C002100F0E1FB08BD7622034B1A70563A024B1A707047C04680000F4082000F40FB
:4003C00010B500F0FBFA041C074A117820230B431370064A117810230B43137000F058FA201C00F0EFFA10BD90000F4092000F4008B5064B1B78002B04D1FFF7D5FF0122F6
:40040000024B1A70FFF7DCFF08BDC0466C010020074B1B78DBB29A0606D5064A1078C0B21E221A4202D102E0002000E00020704762000F4042000F401F2318401E3B834065
:40044000181C014B1860704700E100E001BE704738B5041C0D1C1F2802D90020FFF7F6FFA400034B9C4664442068256038BDC0464000002010B5041C06E0084B586800F081
:4004800093FA074B9C46644480231B029C42F4D8024B9868604300F087FA10BDD00000200080FFFF08B5034B1B7B584300F07CFA08BDC046D0000020F0B557464E46C0B426
:4004C00083B0041C00F07AFA0190E71E2D2F74D83F4B1B78DBB2A34208D33E4B1B78DBB29A463D4B1B78DBB2994631E03B4B1B78DBB2A34208D33A4B1B78DBB29A46394B0D
:400500001B78DBB2994623E0374B1B78DBB2A34208D3364B1B78DBB29A46354B1B78DBB2994615E0334B1B78DBB2A34208D3324B1B78DBB29A46314B1B78DBB2994607E025
:400540002F4B1B78DBB29A462E4B1B78DBB299462D4BDE5D2F2E09D92A2C07D919222B4B1A60052000F020FA192503E0274B1D683F231D40AE4206D2234BDA5D234B1A60DB
:40058000052000F011FA1F4B9C4664442378DBB21F4A13601F4B52461A601F4B4A461A600520FFF77FFFAE420AD9174BDA5D174B1A60052000F0F8F902E00020FFF746FF0F
:4005C000019800F0FFF903B00CBC91469A46F0BDC0F1FF0FC1F1FF0FC2F1FF0FC3F1FF0FC4F1FF0FC5F1FF0FC6F1FF0FC7F1FF0FC8F1FF0FC9F1FF0FCAF1FF0FCBF1FF0F65
:40060000CCF1FF0FCDF1FF0F601600002CFF0B4028FF0B401CFF0B4020FF0B40034B1868C0231B02184000D00120704700010B4008B500F0C3F9044A1368C02109020B436F
:40064000136000F0BFF908BD00010B4010B500F0B5F908490A68084B1A408024E40122430A600A6813408022120213430B6000F0A9F910BD00010B40FF3FFFFF70B5061CB9
:4006800000F09CF9041CFFF7C9FF002803D0FFF7DDFF012500E000250848331C0340084A106808490840184310601368012D01D1FFF7BEFF201C00F085F970BD04040400BE
:4006C00010020B40FBFBFBFF10B5244B1B685B0715D5234B1B685B070ED5224BD969042001401F4C22688A432260DA698243DA611B69002B00D098470420FFF7BFFF174B41
:400700001B685B0518D5164B1B685B0510D5154BD9698022D2001140114802688A430260D969114A0A40DA615B69002B00D098478020C000FFF7A2FF084B1B685B030CD59B
:40074000074B1B685B0304D5064B9B69002B00D098478020C002FFF791FF10BD10020B40E400002070010020FFFBFFFF08B500F06DF808BD08B500F01DF808BD08B5044A36
:400780001368802109060B431360FFF7EFFF08BD0000074008B5064B1B78002B04D1FFF7E9FF0122024B1A70FFF7E8FF08BDC0469001002010B5134A134B1A600023134A11
:4007C00013600121124A1160124A13480260072412480460124803601248016012490A60124A1360124A1360124A1360124A1360124A1360124A1360124A13601268124BD8
:400800001A8010BD0B00000200000740400007404800074007000080000307400403074010030740440007400002074004020740880E0740C80E0740480F0740080F074057
:40084000C80F0740880F074092010020064A1168064B0B40902109040B431360044B1A88044B1A607047C04600000140FFFF0FFF92010020880F074038B5051C002402E07C
:4008800000F0A6F80134285D0028F9D138BDC046034A1368802109060B4313607047C04600000240024A117801230B431370704771000F4010B5041C00F080F807490A786B
:4008C00003231A43D2B20A70054A11780B43DBB2137000F077F8034B1C8010BD90000F4091000F4080100F40014B188880B2704700100F40014B18807047C04600100F4059
:40090000014B18807047C04640100F4008B50548FFF7F6FF0020FFF7EDFF0020FFF7CAFF08BDC0460580000008B5064B1B78002B04D1FFF7EBFF0122024B1A70FFF7B2FF2F
:4009400008BDC04694010020014B18647047C0460000002010B5041C00F030F8044A1368C0218B43A4011C43146000F02BF810BD00E400E00122014B1A60704700E100E060
:400980000122014B1A60704780E100E010B5041CFFF7F6FF201CFFF7D7FF0320FFF7DAFFFFF7E8FF10BDC0460230800804D0C0460138FDD1C046C046C0467047EFF3108006
:4009C00072B6704780F310887047C046C046C046044B1B680F221340082BF9D0024B18607047C0460802074040020740002243088B4274D303098B425FD3030A8B4244D319
:400A0000030B8B4228D3030C8B420DD3FF22090212BA030C8B4202D31212090265D0030B8B4219D300E0090AC30B8B4201D3CB03C01A5241830B8B4201D38B03C01A524189
:400A4000430B8B4201D34B03C01A5241030B8B4201D30B03C01A5241C30A8B4201D3CB02C01A5241830A8B4201D38B02C01A5241430A8B4201D34B02C01A5241030A8B4250
:400A800001D30B02C01A5241CDD2C3098B4201D3CB01C01A524183098B4201D38B01C01A524143098B4201D34B01C01A524103098B4201D30B01C01A5241C3088B4201D345
:400AC000CB00C01A524183088B4201D38B00C01A524143088B4201D34B00C01A5241411A00D20146524110467047FFE701B5002000F00CF802BDC0460029F7D003B5FFF7CF
:400B000075FF0EBC4243891A1847C0467047C046014B18687047C046480100200E4B70B500251E1C0D4CE41AA410A54204D0AB00F35898470135F8E700F0C6FD084B002583
:400B40001E1C084CE41AA410A54204D0AB00F35898470135F8E770BDD4160000D4160000D4160000DC160000031C8218934202D019700133FAE770470EB410B59DB002A97F
:400B8000029008610B48822488604861012040421FABC881084804CBA400006801938C8100F06CF80023029A13701DB010BC08BC03B01847FFFFFF7F48010020F0B58E68A9
:400BC00085B0071C0C1C03920193B34245D390238A89DB001A423DD003250969236801985B1A029363695D43EB0F5D19029B6D1001331B189D4200D21D1C381C53050FD596
:400C0000291C00F025FB061E13D0029A216900F0BCFAA289184B134080221343A38111E02A1C00F06DFB061E0CD1381C216900F0C9FA0C23402201203B60A389404213431D
:400C4000A38117E0029B2661F61826606561019EED1AA560019BB34200D2019E321C2068039900F09BFA0020A3689B1BA36023689E19266005B0F0BD7FFBFFFFF0B59FB0BD
:400C8000029005938B890E1C171C1B0610D50B69002B0DD1402100F0DBFA30603061002804D10C23029A01381360D0E040237361002306AD6B6120336B761033AB763C1CE2
:400CC0002378002B03D1E31B049312D003E0252BF9D00134F4E7049B0298311C3A1CFFF76DFF431C00D1ACE06A69049B944663446B612378002B00D1A3E00122002352422A
:400D00006A6002A95432521801342B60EB60AB601370AB654F4F2178381C052200F02AFA002808D0C01B01278740381C2B68013418432860EEE72B68DA0604D5532220213F
:400D400002A8121811701A0704D553222B2102A81218117022782A2A01D0099B0EE0059A111D12680591002A01DB099204E05242EA60022213432B60013409E02278303A56
:400D8000092A04D80A214B4301349B18F6E7099323782E2B18D163782A2B09D1059B02341A1D1B680592002B0DDA01235B420AE0002301342278303A092A04D80A214B431B
:400DC00001349B18F6E70793234F2178381C032200F0D0F9002807D0C01B40278740381C2B6801341843286021781C480622671C297600F0BFF9002812D0194B002B06D1F1
:400E00000722059B073393430833059314E005AB00930298291C321C124B00E000BF07E005AB00930298291C321C0E4B00F08AF80390039B013304D06B69039A9B186B615B
:400E40003DE7B3890B985B0601D5012040421FB0F0BDC04692160000981600009C16000000000000BD0B0000F7B5171C01930A698B6800900C1C934200DA131C221C3B60FB
:400E800043321278002A01D001333B6023689B0602D53B6802333B60062523681D401ED0231C43331B785A1E9341226892061CD53020E1184031C870211C5A1C45310978AF
:400EC000A21840320233D1700FE0221C0123009801991932089EB047431C0ED00135E3683A689B1A9D42F0DBDAE7221C009801994332089DA847431C02D10120404220E017
:400F000006232068E1683A6803400025042B03D18D1AEB43DB171D40A3682269934201DD9B1AED180027AF420ADA221C0123009801991A32089EB047431CDED00137F2E7EC
:400F40000020FEBDF0B58BB006920A1C43320793059004920A7E0C1C109B6E2A00D1A8E011D8632A22D009D8002A00D1B2E0582A00D0C2E045310A707C4A4FE0642A1DD048
:400F8000692A1BD0B9E0732A00D1A7E009D86F2A29D0702A00D0B0E0202209680A43226037E0752A1FD0782A33D0A6E00E1C1A684236111D196013683370A1E021681A68F1
:400FC000080606D4490604D5111D19600023D55E02E0111D19601568002D3BDA2D23049A6D42137036E021681A68080606D4490604D51568111D1960ADB202E0111D19603F
:4010000015685A4B227E03930A276F2A1DD108271BE0221C782145321170554A19680392081D226818600D68100602D4500600D5ADB2D30702D520231A4322601027002DA9
:4010400003D1202322689A432260231C002243331A7002E00A27454B03936368A360002B03DB0422216891432160002D02D1049E002B0ED0049E281C391CFFF73DFD039B47
:40108000013E5B5C281C3370391CFFF7AFFC051EF1D1082F09D12368DB0706D563682269934202DC3023013E3370049B9B1B23612BE009681A68080607D4490605D5111DCA
:4010C00019601368A28A1A8004E0111D1960136862691A600023049E236116E01A68111D196016680021301C626800F043F8002801D0801B6060636803E0261C4236327045
:40110000012323610023049A1370079B05980093211C069B09AAFFF7A7FE431C02D10120404221E0236905980699321C079DA847431CF4D023689B0705D4099BE068984257
:4011400012DA181C10E00025E368099A9B1A9D42F3DA221C0123059806991932079EB047431CDCD00135EFE70BB0F0BDA3160000B4160000C9B28218904204D003788B4261
:4011800002D00130F8E700207047002310B5934203D0CC5CC4540133F9E710BD10B5814208D28B18984205D29B1A013A09D3995C8154FAE70023934203D0CC5CC454013359
:4011C000F9E710BD30B500293ED004390B68002B00DAC9181D4A1368141C002B02D14B60116031E099420DD208680A189A4203D11368C3180B6053684B60216024E08A42DF
:4012000003D8131C5A68002AF9D11D685C198C420BD10968691858181960904214D110685268091819605A600EE08C4202D90C23036009E008680C18944203D114685268AC
:40124000001908604A60596030BDC046A0010020032370B5CC1C9C430834051C0C2C01D20C2405E0002C03DA0C2300202B6042E08C42F9D3204A1368101C191C002913D056
:401280000A68121B0DD40B2A02D90A608B181FE08B4202D15A6802601BE04A685A600B1C17E00B1C4968E9E7144E3368002B03D1281C00F04BF83060281C211C00F046F8EF
:4012C000031C421CD0D00322C61C964386420AD11C60181C07210B301A1D8843821A0AD05142995007E0311A281C00F02FF8431CBAD0331CECE770BDA00100209C01002004
:40130000F8B5061C0C1C151C002904D1111CFFF79FFF041C18E0002A03D1FFF753FF2C1C12E000F025F8A8420ED2301C291CFFF78FFF071E07D0211C2A1CFFF726FF301C5C
:40134000211CFFF73FFF3C1C201CF8BD38B50023064C051C081C2360FEF7A6FF431C03D12368002B00D02B6038BDC046A40100200B1F1A68101F002A04DA891804390B68B7
:40138000D0180438704700000000000025303458000000000D0A000000300F40000400400F40000402000F4061300F4034310F4061320F404D330F4004400F4003410F4088
:4013C00002600F40807682380003045406A80A030CC10E321003140318A81A541CCD1E32203F22C024CD2632280D2AF2300334FC4005442249FF4AFF4BFF4C024D0C4EF827
:4014000050025602571358045A085B045F01624863A168F06AF06CF06EF083048510881089088A048D409014913C9381940295BF9601980199409A029B189DBC9F02A20CF2
:40144000A414A504A9A7AB18AC14AF83B010B11FB204B360B403B598B608B908BB02BE11C005C422C50AC801C9FFCAFFCBFFCC03CD0CCEF4D804D904DA08DB04DF01E24812
:40148000E3A1E8F0EAF0ECF0EEF00008016003400530084009080A440C010E500F0810A012081480150817481A041B031D211E112510260827502DA02F10340137583E09BE
:4014C0003F504120452048024C024F08590168A069546C027104720873507B017F02C04FC27FC4BECA70CCF0CEF0D024D218D601DE1800C303010408070208E70A180B0241
:401500000EC710D8122714FF18822041261828102C182EE72F01301C320334D835013620370238803A223F504025410342044406450C47E0482149FF4AFF4BFF4C624DA023
:401540004EF04F41500C54185604580459045A045B045F016640670269106A306B106D106E106F12821185E3871C880589E38A088B1C8C048DE08E088F1C9202950397FCBF
:4015800099929A209B259C019D1F9E209FE0A00DA148A325A405A608A805AA08AD25AFDAB003B1FFB430B60CBB08BE10BF01D804D904DF01014202080596089009020A04F5
:4015C0000D040E4410A0111014801608174419821A021B111C021D301E401F08210E2680270828802B012F0230903208330439543C023D203F08452846804E014F285702DC
:4016000058085B085E026280630164086781811082808E018F0891549204950896409780988099049A089B409D90A0A0A110A208A508AC84AF50B040B110C0FBC27BC4FEEE
:40164000CA19CC0ECEEED0E0D230D680D8B00B406F02C210DA80AF42EA10EC4010011101030405060708090A0B0C0E0F101112131415161718191B1C1D1E1F2021222325CE
:40168000262728292A2B2E2F30313233343500004300232D302B2000686C4C0065666745464700303132333435363738394142434445460030313233343536373839616207
:4016C0006364656600000000F8B5C046F8BC08BC9E467047D901000021030000F8B5C046F8BC08BC9E467047B101000000170000C80000208800000058000000000000003D
:4017000000000000A8010020010000000000E02EC05D00001800000000366E01040404000000000000000000000000000000000000000000000000000000000000000000EB
:4017400090160000000000000000000000000000000000000000000000000000000000000000000000000000000000000000000000000000000000000000000000000000C3
:40178000E800002000000000000000000000000000000000000000000000000000000000000000000000000000000000000000000000000000000000000000000000000021
:4017C00000000000000000000000000000000000000000000000000000000000000000000000000000000000000000000000000000000000000000000000000000000000E9
:4018000000000000000000000000000000000000000000000000000000000000000000000000000000000000000000000000000000000000000000000000000000000000A8
:401840000000000000000000000000000000000000000000000000000000000000000000000000000000000000000000000000000000000000000000000000000000000068
:401880000000000000000000000000000000000000000000000000000000000000000000000000000000000000000000000000000000000000000000000000000000000028
:0200000490303A
:02000000951158
:0200000490402A
:200000000000000000000000000000000000000000000000000000000000000000000000E0
:0200000490501A
:0C000000000204C81193110104CFA6A453
:0200000490600A
:0100000001FE
:00000001FF